:020000040800F2
:100000007006002029020008DF0C0008B10B000870
:10001000CD0C00089F040008BD0D00080000000082
:100020000000000000000000000000002B0D000890
:10003000A104000800000000290D00082D0D000893
:10004000430200084302000843020008430200087C
:10005000430200084302000843020008430200086C
:10006000430200084302000843020008430200085C
:10007000430200084302000843020008430200084C
:10008000430200084302000843020008430200083C
:10009000430200084302000843020008430200082C
:1000A000430200084302000843020008430200081C
:1000B000430200084302000843020008430200080C
:1000C00043020008430200084302000843020008FC
:1000D00043020008430200084302000843020008EC
:1000E00043020008430200084302000843020008DC
:1000F00043020008430200084302000843020008CC
:1001000043020008430200084302000843020008BB
:1001100043020008430200084302000843020008AB
:10012000430200084302000843020008430200089B
:10013000430200084302000843020008430200088B
:10014000430200084302000843020008430200087B
:10015000430200084302000843020008430200086B
:10016000430200084302000843020008430200085B
:100170004302000843020008430200080000000098
:10018000430200084302000800F002F800F03CF8C7
:100190000AA090E8000C82448344AAF10107DA45E2
:1001A00001D100F031F8AFF2090EBAE80F0013F0F8
:1001B000010F18BFFB1A43F0010318471C1F000072
:1001C0003C1F0000103A24BF78C878C1FAD8520703
:1001D00024BF30C830C144BF04680C6070470000C1
:1001E0000023002400250026103A28BF78C1FBD840
:1001F000520728BF30C148BF0B6070471FB501F0E0
:1002000028FF1FBD10B510BD00F014F91146FFF70F
:10021000F5FF01F0F7F800F032F903B4FFF7F2FF51
:1002200003BC00F035F90000094880470948004741
:10023000FEE7FEE7FEE7FEE7FEE7FEE7FEE7FEE796
:10024000FEE7FEE704480549054A064B70470000F3
:10025000AD0D000889010008700000207006002024
:10026000700200207002002053EA020C00F0698046
:100270002DE9F04B4FF00006002B1FBFB3FA83F5BA
:1002800003FA05F424FA05F65E4012BF1643B2FAEB
:1002900082F502FA05F4C5F120051EBF22FA05FC1D
:1002A00044EA0C04203556EA044C4FEA144418BFC3
:1002B000641C4FF000084FF00009904271EB030CF2
:1002C00039D3002919BFB1FA81F701FA07F6B0FA5C
:1002D00080F700FA07F6C7F120071EBF20FA07FCD7
:1002E00046EA0C062037B6FBF4FCA7EB0507103FE7
:1002F00007F01F0BCBF120060CFA0BFB2CFA06F6CD
:1003000044BFB3460026202FA4BF5E464FF0000B2B
:100310005BEA060C08BF4FF0010B19EB0B09ABFBB6
:10032000027C48EB0608C01B06FB02CC0BFB03CC8F
:1003300071EB0C01C1E70B46024641464846BDE859
:10034000F08B13B54FF000004FF00001AFF30080C9
:10035000BDE81C40704710B5203AC0F00B80B1E8F2
:100360001850203AA0E81850B1E81850A0E81850EA
:10037000BFF4F5AF5FEA027C24BFB1E81850A0E8F3
:10038000185044BF18C918C0BDE810405FEA827C0D
:1003900024BF51F8043B40F8043B08BF7047D20724
:1003A00028BF31F8023B48BF11F8012B28BF20F8C5
:1003B000023B48BF00F8012B70474FF0000200B528
:1003C000134694469646203922BFA0E80C50A0E878
:1003D0000C50B1F12001BFF4F7AF090728BFA0E826
:1003E0000C5048BF0CC05DF804EB890028BF40F8F2
:1003F000042B08BF704748BF20F8022B11F0804F34
:1004000018BF00F8012B704770477047704710B550
:1004100000F008F8006810BD10B5044600F002F8BE
:10042000046010BD0048704710000020004870476D
:10043000100000207546FFF7F9FFAE46050069463B
:10044000534620F00700854618B020B5FFF7FAFEA6
:10045000BDE820404FF000064FF000074FF00008C5
:100460004FF0000B21F00701AC46ACE8C009ACE846
:10047000C009ACE8C009ACE8C0098D46704710B5AA
:100480000446AFF300802046BDE81040FFF7C5BE2C
:1004900001491820ABBEFEE7260002007047FEE7C8
:1004A0007047D0ED000A084620EE800A81ED000A70
:1004B00000F016BC10B5044604F10C0000F044F83E
:1004C00004F1140000F040F804F11C0000F03CF8C6
:1004D00004F1240000F038F89FED040A84ED0B0AC3
:1004E000AFF22F00206302486063E5E700000000E0
:1004F000F504000830B504462DED028BB0EE408ABD
:1005000090ED020A00F12C0183B00846FFF7C9FF05
:100510009FED0C0A04F10C0184ED050A84ED068AB6
:1005200094ED0B0A0D4604F1140000F0A7FB694698
:10053000284600F03FFB21686846884703B0BDECC1
:10054000028B30BD00000000002805D09FED030A9B
:1005500080ED000A80ED010A7047000000000000F5
:100560000148806870470000000000200248816850
:100570000278114481607047000000200B4810B5DC
:10058000016841F400710160016841F4806101601B
:10059000016841F480710160032000F061F80F20D0
:1005A00000F006F800F024F8002010BD003C0240E6
:1005B00070B50D4D04464FF47A712878B1FBF0F018
:1005C0000A490968B1FBF0F000F0DEFA48B9102CD6
:1005D00007D200222146501E00F022F800206C6055
:1005E00070BD012070BD0000000000200C00002044
:1005F0000A4808B5016841F480410160006800F4D0
:10060000804000900548001F016841F08051016062
:10061000006800F08050009008BD0000443802409F
:10062000F0B40E4B1B680C46C3F30223C3F107055D
:10063000042D00D90425191D072901D2002300E04B
:10064000DB1E012606FA05F1491E214099409E4015
:10065000761E16403143F0BC00F0C4BB0CED00E048
:10066000064900F0070208684FF6FF03184040EA09
:100670000220034A10430860704700000CED00E0C0
:100680000000FA052DE9F0470E46050065D0DFF8B9
:100690001481D8F80000F7B200F00700B04207D28A
:1006A00088F80070D8F8000000F00700B04254D17C
:1006B00028683D4C810712D5400703D5206840F4D7
:1006C000E05020602878000703D5206840F460409F
:1006D00020602068A96820F0F00008432060287896
:1006E000C0072DD0304968680839012812D0022887
:1006F00013D0032811D00968890700292DDA216851
:1007000021F0030101432160FFF72AFF814641F2F6
:10071000883A0EE009688903EFE709688901ECE788
:10072000FFF71EFFA0EB0901514502D90320BDE8E8
:10073000F0872068696800F00C00B0EB810FEFD102
:10074000D8F80010404601F00701B14207D9077000
:10075000006800F00700B04201D00120E7E72878E8
:10076000400705D52068E96820F4E0500843206080
:100770002878000706D52068296920F4604040EAFF
:10078000C100206000F018F82168084AC1F3031185
:10079000515CC8400649086006480068FFF708FF3A
:1007A0000020C4E7003C024008380240A8200008AE
:1007B0000C00002004000020154810B5006810F05F
:1007C0000C02144813D01449042A0FD0082A0ED161
:1007D0000F4C241F2268236802F03F025B0207D5FA
:1007E0002068C0F38810A0FB010106E0084610BD98
:1007F0002168C1F38811A1FB00010023FFF734FD3C
:100800002168C1F30141491C4900B0FBF1F010BD62
:10081000083802400024F40040787D012DE9F84FAB
:1008200004006ED02078DFF84C93C007A9F10405CE
:100830004AD009F104000168C1F38101012908D0FF
:100840000068C0F3810002280AD1D9F800004002F4
:1008500006D52868800337D560680028E1D033E0EA
:100860006068B0F5803F10D0B0F5A02F286810D098
:1008700020F480302860286820F480202860606898
:10088000A8B1FFF76DFE06460DE0286840F4803001
:10089000F4E740F480202860F7E700BFFFF760FE30
:1008A000801B642873D828688003F7D50CE0FFF715
:1008B00057FE064605E000BFFFF752FE801B642886
:1008C000F0D828688003F7D42078DFF8AC8280075E
:1008D0004FF0000A3ED5A748001D016811F00C0F2B
:1008E00008D00068C0F3810002280BD1D9F80000BD
:1008F000400207D42868800716D5E068012800D197
:1009000012E033E1E068B8B10120C8F80000FFF759
:1009100027FE064605E000BFFFF722FE801B0228E7
:10092000C0D828688007F7D52868216920F0F8002A
:1009300040EAC10028600DE0C8F800A0FFF710FEF3
:10094000064604E0FFF70CFE801B02281FD828682B
:100950008007F7D42078000722D5864F8748616941
:10096000703771B101210160FFF7FAFD064604E01E
:10097000FFF7F6FD801B022809D838688007F7D5F5
:100980000EE0C0F800A0FFF7EBFD064605E082E0B0
:10099000FFF7E6FD801B02287DD838688007F7D472
:1009A0002078400768D5DFF8CCB100270BF13C0B6D
:1009B000DBF80000C0000BD4DBF8001041F08051E0
:1009C000CBF80010DBF80000012700F08050009009
:1009D0006B4E3068C00510D4306840F480703060D1
:1009E000FFF7BEFD009005E0FFF7BAFD0099401A41
:1009F000022850D83068C005F6D55E4EA0686C3627
:100A000001280FD00528306810D020F00100306098
:100A1000306820F004003060A068B8B1FFF7A0FD96
:100A200000900FE0306840F00100F4E740F004006F
:100A30003060F7E7FFF794FD0099411A41F28830E2
:100A4000814266D830688007F4D50EE0FFF788FD54
:100A5000009007E0FFF784FD0099411A41F28830C9
:100A6000814256D830688007F4D42FB1DBF80010EB
:100A700021F08051CBF80010A069C8B33D49091D91
:100A80000968C1F3810102294AD00228504607D0E3
:100A9000C8F8600000E03CE0FFF762FD04463BE080
:100AA0004746C8F86000FFF75BFD064605E000BF5B
:100AB000FFF756FD801B02282BD828688001F7D449
:100AC000D4E907010843A16A2E4A490802EB014113
:100AD000626A41EA8211084394F82C1040EA0161ED
:100AE000C9F8001001203866FFF73AFD044606E019
:100AF0003EE000BFFFF734FD001B022809D828683C
:100B00008001F7D534E000BFFFF72AFD001B022863
:100B100002D90320BDE8F88F28688001F4D427E0CB
:100B20000128F7D0D9F80000E26900F48001914271
:100B30001CD1226A00F03F01914217D147F6C071E3
:100B4000626A0140B1EB821F10D1A26A4FF0FF33FD
:100B500000F4403103EB5202B1EB024F06D194F89E
:100B60002C1000F07060B0EB016F01D00120D1E7D4
:100B70000020CFE70438024000004742800E474281
:100B8000007000400000FFFF10B5401EB0F1807FF4
:100B900001D3012010BD4FF0E02460610F216017E8
:100BA00000F020F90020A06107202061002010BD86
:100BB000FEE7000070B504462DED068B0D4690ED66
:100BC000000A81ED000A406801F0D2F99FED279BF1
:100BD00041EC180BB0EE490AF0EE690A00F004FB94
:100BE00053EC182B51EC100B00F05AFE94ED000A58
:100BF00041EC180BB1EE400A10EE100A01F0B8F902
:100C000053EC182B00F04CFC9FED1AAB53EC1A2B55
:100C100000F046FE00F012FC6860606801F0A8F980
:100C200041EC180BB0EE490AF0EE690A00F0DCFA6C
:100C300053EC182B51EC100B00F032FE94ED000A2F
:100C400041EC180BB1EE400A10EE100A01F090F9D9
:100C500053EC182B01F0A2F853EC1A2B00F020FEF5
:100C600000F0ECFBA860BDEC068B70BD000000003E
:100C700000000840000000000000E03F70B50D4695
:100C80002DED028BF0EE408A044600F0E5F9F0EE1F
:100C9000400AB0EE680AB0EE608A00F0B3F8D4ED16
:100CA000000A94ED011A60EE800A41EE480AC5ED93
:100CB000000AD4ED000A94ED011A60EE880A41EEB4
:100CC000000AC5ED010ABDEC028B70BDFEE7000015
:100CD0009FED010A70470000000000007047FEE72A
:100CE00010B50446006801F043F941EC100B9FED8C
:100CF0000B1B00F02FF951EC100B00F09FFB00EEE6
:100D0000100AB5EEC00AF1EE10FA03DADFED050ABB
:100D100030EE200A84ED000A10BD000000000060E3
:100D2000FB211940DB0FC94070477047FFF71EBC1D
:100D300010B592B030216846FFF73FFB14210CA894
:100D4000FFF73BFB17480024016841F08051016028
:100D5000006800F0805011901348016841F4804110
:100D600001600068069400F4804011900220009019
:100D700001200390102004906846FFF74FFD08B152
:100D800072B6FEE70F20CDE90C040E940F940021FB
:100D90000CA81094FFF776FC002801D072B6FEE78D
:100DA00012B010BD40380240007000400248016897
:100DB00041F470010160704788ED00E0FEE74100FA
:100DC000080218BF04200A0E18BF40F001004FF0BF
:100DD0007F4232EA010108BF40F00200012808BF4B
:100DE000052070470907090E002804DB00F1E02008
:100DF00080F80014704700F00F0000F1E02080F848
:100E0000141D704710EE101A08B5444A6846B2EB3C
:100E1000410F28D94FF0E640B0EB410F94BF0020BE
:100E20004FF0FF3000900098002861DB60EE000A70
:100E300010F0010F45D010F0020FDFED391A9FEDD1
:100E4000391A00EEE11ADFED381A40EE811A21EE70
:100E5000A01AF0EE400A40EE010A08BFF1EE600A67
:100E6000B0EE600A08BD314B21F0004293423CD9FC
:100E700011F0004FDFED2E0A20EE201ADFED2D0AD3
:100E800019BF31EE601A71EE200A31EE201A71EEB0
:100E9000600ABDEEE01A11EE100A9FED271A00F06D
:100EA000030000EEC10A9FED251A009000EEC10A72
:100EB0009FED231A00EEC10A9FED221A00EEC10A2F
:100EC000B1E79FED211A9FED210A10F0020F00EE0D
:100ED000810A9FED1F1A00EE801AB7EE000A00EE9D
:100EE000810A18BFB1EE400A08BD00F0E1F99AE7A7
:100EF00010EE100A4000B0F17F4F3CBFB7EE000A81
:100F000008BD07D14FF00100FFF786FABDE80840A1
:100F100000F0BEB9BDE8084000F0B6B9B61F927E39
:100F2000336D4C39DA82083CA0AA2ABE490E4946E4
:100F300083F9223F0000004B0000C93F00A0FD39AB
:100F40000020A2331A61342CB93AB2BACA9F2A3DA2
:100F5000DDFFFFBE10B52DED040B86B09DED060B39
:100F600010EE100A10EE901A8DED000B002818BF3D
:100F70000120084320F00040C0F17F6000F1E04014
:100F8000C00F21D19DED080B10EE101A10EE900A43
:100F90008DED000B002918BF0121084320F000400F
:100FA000C0F17F6000F1E040C00F0DD129490798E2
:100FB000B1EB400F04BF0698002842D009984000CA
:100FC00004BF089800283CD09DED080B53EC102B73
:100FD0009DED060B51EC100B00F05AFDCDE902011E
:100FE0009DED020B40F2FF7110EE900A8DED000BAB
:100FF00031EA105021D00798039900F0004001F029
:101000000041884219D09DED080B8DED040B9DED3C
:10101000020B8DED000B10EE900A059961F31E0096
:1010200005909DED041B9DED020B51EC110B53EC53
:10103000102B00F0DBFDCDE902019DED020B0AB0A3
:1010400010BD0120FFF7E8F90AB0BDE8104000F03C
:101050000BB900000000E0FF00B510EE101A2DEDF6
:10106000028B81B0524A6846B2EB410F2ED94FF045
:10107000E640B0EB410F94BF00204FF0FF300090EE
:101080000098B0EE408A00286ADB10F0010F4BD0C8
:1010900068EE080A9FED471A9FED470A00EE810AA5
:1010A0009FED461A10F0020F00EE801AB7EE000A0C
:1010B00000EE810A02BF01B0BDEC028B00BD00BF93
:1010C00001B0B1EE400ABDEC028B00BD3C4B21F0FB
:1010D0000042934241D911F0004FDFED3A0A20EE71
:1010E000201ADFED390A19BF31EE601A71EE200ABD
:1010F00031EE201A71EE600ABDEEE01A11EE100A10
:101100009FED321A00F0030000EEC10A9FED301A85
:10111000009000EEC10A9FED2F1A00EEC10A9FED6C
:101120002E1A00EEC10AABE728EE080A9FED2B1A33
:10113000DFED2B0A10F0020F40EE410A9FED291A55
:1011400000EE201A61EE000AB0EE480A08EE200A0E
:10115000B6D101B0BDEC028B00BD00F0A9F88FE75D
:1011600018EE100A4000B0F17F4F0DD218EE100AB1
:10117000FFF725FE042808BF00F092F8B0EE480AF9
:1011800001B0BDEC028B00BD09D10120FFF744F98D
:1011900001B0BDEC028B5DF804EB00F079B801B052
:1011A000B0EE480ABDEC028B5DF804EB00F06CB8C1
:1011B000B61F927EB93AB2BACA9F2A3DDDFFFFBE82
:1011C000490E494683F9223F0000004B0000C93F09
:1011D00000A0FD390020A2331A61342C336D4C3944
:1011E000DA82083CA0AA2ABE00B52DED048BB0EE31
:1011F000409AF0EE609A83B051EC190B00F002FDBA
:1012000041EC180B18EE100A18EE901A8DED008BB9
:10121000002818BF0120084320F00040C0F17F6083
:1012200000F1E040C00F14D019EE101A19EE900A28
:101230008DED009B002918BF0121084320F00040DC
:10124000C0F17F6000F1E040C00F04BF0120FFF754
:10125000E3F8B0EE480A03B0F0EE680ABDEC048B88
:1012600000BD0000000000009FED050B10B553EC21
:10127000102B51EC100B00F0BBF941EC100B10BD22
:10128000000000000000000030EE000A704700007F
:10129000DFED020A80EEA00A7047000000000000A7
:1012A0009FED020A20EE000A7047000000000010C7
:1012B0002DE9F0014FF07F42B2EB410F9FBF4FF09D
:1012C000FF310160BDE8F00170474FF0004242EA93
:1012D0000123C1F3C752783A551112F01F0C434C49
:1012E000CCF120067C44C1F3C752A2F178024FEA48
:1012F000621204EB820254F8254008BFD2E901567D
:1013000012D0556804FA0CF425FA06F73C439768A6
:1013100005FA0CF527FA06F8D26807FA0CFCF24039
:1013200045EA08054CEA0206A4FB034CA5FB035260
:10133000A6FB03631D449D4234BF012600261319FA
:10134000334416B1934202D903E0934201D2012201
:1013500000E00022624402F1200C9206DC0C42EA1A
:10136000443200EE102A5B03DFED210AF8EEC01ACA
:1013700000EE103A4FEA9C1C11F0004FB8EE400A04
:10138000C0F800C020EE201A00EE105ADFED190A56
:10139000B8EE400A20EE200A71EE810A70EE800A53
:1013A00010EE902A02F500626FF30B0200EE902A15
:1013B00070EEE11A31EEC11ADFED101A30EE411A6B
:1013C0009FED0D0A20EE800A01EE210A9FED0C1A16
:1013D00000EE810A04BFBDE8F0017047CCF18051F6
:1013E0000160BDE8F001B1EE400A7047D00D000089
:1013F000000000360000802C22AAFD29DB0FC92F37
:101400000000C92F90B0FFF7B9F8FFF791FC094829
:10141000016841F0010101600068382200F001001C
:101420000E9005496846FEF796FF6846FFF742F8BA
:10143000FEE70000303802407020000821F0004232
:10144000A2F16052B2F5801F01F0004328BFD2F133
:101450007F6C0BD95FEA001C43EAC20242EB50707A
:1014600018BF704728BF20F001007047B2F5801FF9
:10147000BCBF184670474FEA410C1CF5001F02D252
:10148000084600F0EBBD70B500F0B4FA000000892A
:10149000FFF7F6BF4FF00040A0F580007047000056
:1014A00010B591EA030F48BF83F0004300F17E843A
:1014B000841A71EB030C05D2121943EB0C03001BC9
:1014C00061EB0C01DFF824E14FEA1154A4EB135C4B
:1014D0001EEA430F18BF9EEA445F73D023EA0E034F
:1014E000DCF1200E21EA045143F4801332D322FAB6
:1014F0000CFE10EB0E0023FA0CFE41EB0E01CCF1BA
:10150000200E03FA0EFE10EB0E0051F10001B1F5B2
:10151000801FCCF1200E32D201EB045112FA0EF2F0
:10152000BDE8104058BF7047401C38BF5FEA420218
:1015300018BF7047002814BF20F0010041F10001DE
:101540004FEA410313F5001F38BF7047A1F1C041B6
:1015500000F046BB012A43EB0302ACF1200CDCF1A6
:101560001F0E32BF4FF0000E23FA0CF310EB0300F6
:1015700041EB0451B4EB115FD0D0A1EB045101F564
:10158000801149085FEA300001EB04510ED350F19D
:10159000000038BF12FA0EFE08D1BDE81040C9E7BE
:1015A000401C38BF5FEA4202CAD1C3E7BDE8104021
:1015B0004FEA410313F5001F38BF7047A1F1C04146
:1015C00000F00EBB9EEA445F08D011EA5E0FBDE852
:1015D000104004BF01F0004100207047BDE81040FA
:1015E00070B500F007FA00BF64FBBE3E0000E0FFEC
:1015F0002DE9C04130B4DFF8A0C23CEA111418BF95
:101600003CEA131400F0EC8081EA03051CEA111493
:1016100044EAD57418BF1CEA131500F0C780A4EB88
:1016200005044FF0004545EAC12145EAC32341EADC
:10163000505143EA525304F17F74994204F5003447
:101640004FEAC0204FEAC22208BF904200F09C80BF
:101650004FEA13650FF24016765D4FEA134506FB1D
:1016600005F7C7F1807706FB07F74FEAD737A7FBE7
:1016700003687642C8F58038A7FB06CE38BFA8F1CC
:10168000010807FB08E64FF0000EA6FB028CE6FB04
:1016900003CEDCF1000CCEF1004E38BFAEF1010EEE
:1016A000A6FB0C584FF000074FF00005E6FB0E8735
:1016B000A1FB08C6A0FB07CE16EB0E0645F1000500
:1016C000E1FB076515F1E04E7EBFA4F580345FEACB
:1016D00046066D4116F1800745F100054FEA1727D0
:1016E0004FEA066647EA0567A6F1DE46B6F1805F77
:1016F0004FEA15251FD9384624F0010C05EBC471BB
:10170000BCF1FE6F01EB0C1102D8F0BCBDE800810A
:1017100024425CBF01F5801E9EEAC47F02D4F0BC67
:10172000BDE80081244238D4F0BCA1F1C041BDE83D
:10173000004100F055BA4FEAD22242EA43524FEA42
:10174000D323A7FB02864FEAD02040EA415007FB93
:1017500003661EEA0E0F4FEAD12105FB026658BF51
:10176000A6EB0056B6EB00564FEA520E4EEAC37E89
:1017700018EB0E0E56EB530EBDD518EB02085E416A
:101780007F1C55F10005B6E74FF480154FF00007B8
:101790004FF000064FF00008ADE7F0BC4FF000003E
:1017A00001F1C04101F00041BDE8008111EA0C1FC8
:1017B0000CEA131500D00CE013EA0C1F00F0258092
:1017C0004FF00000F0BC81EA030101F00041BDE8E8
:1017D0000081F0BCBDE8004181EA030100F000BADD
:1017E000F0BCBDE8004170B500F004F9097EFC3E94
:1017F00000F007B881EA03014FF0000001F000415A
:10180000704781EA030100F0EBB9F0BCBDE800418C
:101810004FF0000021497047FFFDFBF9F7F5F4F2A6
:10182000F0EEEDEBE9E8E6E4E3E1E0DEDDDBDAD87B
:10183000D7D5D4D3D1D0CFCDCCCBCAC8C7C6C5C4D9
:10184000C2C1C0BFBEBDBCBBBAB9B8B7B6B5B4B3F0
:10185000B2B1B0AFAEADACABAAA9A8A8A7A6A5A4DB
:10186000A3A3A2A1A09F9F9E9D9C9C9B9A9999989F
:101870009797969595949393929191908F8F8E8E42
:101880008D8C8C8B8B8A89898888878786858584CF
:1018900084838382828181800000FF070000F87FBB
:1018A000DFF848C170B51CEA111E1EBF1CEA1315F3
:1018B0009EEA0C0F95EA0C0F00F06F8081EA03049A
:1018C00023EA4C134EEAD47E21EA4C1141F48011F4
:1018D00043F48013AE44A1FB024CA0FB0365AEF1C0
:1018E0007F7E361955EB0C05A1FB034C4CF1000330
:1018F000A0FB021C16EB0C06654153F100030942E4
:1019000018BF46F0010613F4007F0BD14FEA0331F4
:101910004FEA0530340341EA155140EA16506FF0A2
:1019200003020AE04FEAC3214FEAC520F40241EA6C
:10193000555140EA56506FF0020202EB2E4201EB85
:10194000025585EACE710AD05FEA440C18BF24F034
:10195000004450F1000041F1000120EAD47040F24F
:10196000FE7C624500D270BDA84214BF4FF0804497
:101970004FF04044002E08BF0024BEF1806FA8BF86
:10198000A1F1C041BDE8704080F22A814FF0000013
:1019900001F1C04101F0004170479EEA0C0F0CEAD2
:1019A000131518BF95EA0C0F06D04FF0000081EA1E
:1019B000030E0EF0004170BD00F01CF88900013EDE
:1019C00000F007B800F009B84FEA430C5FEA5C5C2E
:1019D00008D081EA030100F003B94FEA410C5FEA45
:1019E0005C5CF6D14FF00000014970470000FF0732
:1019F0000000F87F0EF1020E2EF0030E5EF8046B6D
:101A0000364205D4012A43EB030515F5001F12D811
:101A1000012841EB010C1CF5001F0CD80ED14FEA38
:101A2000D17C15F5001F0CEB4C0C0CF1020C08BF1F
:101A30004CEBD37C04E04FF0080C01E04FEAD37C80
:101A40000CEB4C0526FA05F606F00706B6F1040C79
:101A500006D20EEB860CBDE870404CF0010C6047DE
:101A6000DFE80CF0090B02024FF000414FF00000DC
:101A7000A1F5002170BD19461046012851EB010463
:101A800018BFD4F5001484BF002001F0004170BDE0
:101A9000DFF844C170B53CEA111418BF3CEA1315D5
:101AA00000F08F8011F1004F1CEA13150CEA11149D
:101AB00068BF45F0050518BF11EA0C1F00F07980DA
:101AC0002E4621EA4C1123EA4C1341F4801143F4D1
:101AD0008013A5F58035AC423DDD801A9941A4F50F
:101AE000803609D54042C1F1000134BFB1F1010196
:101AF000B1F1000185F0010511F4F01F08D011F4D7
:101B0000801FE8D1400041EB0101A4F58034F6E7E5
:101B100021F00041B1FA81F6202E04BFB0FA80FE18
:101B20000EF12006A6F10B06B6F1200EA4EB06443A
:101B30000CD2C6F1200E01FA06F120FA0EF641EAA7
:101B40000601CEF1200600FA06F003E000FA0EF1DD
:101B50004FF00000BFE750EA410E23D04FEA244E79
:101B6000BEEB254F0FDB994208BF904204D00AD349
:101B7000520043EB0303B0E74FEA1646B6EB144FAF
:101B800008BF85F00105B4F5803401EB041181EA4A
:101B9000C57100DB70BD01F1C0414FF0000001F0E4
:101BA000004170BD4FEA45714FF0000001F0004167
:101BB00070BD1CEA131F09D04FF0000001F0004176
:101BC00070BDFFF717FF00BFEDFFFF3EBDE870409F
:101BD0004FF00000014970470000FF070000F87F48
:101BE0000808A0F500114FEA3101704791EA030F90
:101BF00010B581F000413FF55BAC83F0004300F08D
:101C0000D5B800002DE9F04101F5801CBCF5001F9E
:101C1000C0F2A9804FEA115C21EA0C510CF1FD0CD5
:101C200041F480115FEA5C0C0CF5C07C01D34000EC
:101C3000494130A4890241EA905187028E0E0A0C74
:101C4000A45D04FB04F602FB06F6C6F14046A4FBC5
:101C50000662F60D46EA422606FB06F4A4FB0123C3
:101C60005242C3F1404338BF5B1EA6FB0242002430
:101C7000E6FB0324D20B42EA4446A6FB0623A1FB63
:101C800002E2A3FB07E4E3FB61426442C2F1404E7F
:101C900038BFAEF1010EA6FB04234FF00002E6FBB5
:101CA0000E32A2FB03463400E2FB6264A1FB06E6AF
:101CB000A4FB07E8E4FB61687642C8F1405838BFEE
:101CC000A8F10108A2FB06E4A3FB08E5E2FB6854C7
:101CD000A1FB05E6A7FB04E8E1FB648618F12005FB
:101CE00056F10006A809A8F11B08B10908F03F0841
:101CF000B8F10A0F40EA86601CD901EB0C51BDE82F
:101D0000F08100BFFCF5EEE8E2DDD8D3CFCBC7C34E
:101D1000C0BDB9B6B4B1AEACA9A7A5A3A19F9D9B08
:101D20009A9896959392908F8D8C8B8988878685CB
:101D300084838281A0FB006800FB01F208EB42086B
:101D4000B8EB872807D5341858EB0104D5D5401CCB
:101D500051F10001D1E7341A78EB0104CDD4401ED3
:101D600071F10001C9E75FEA4C0C5FEA9C5C0DD1A0
:101D700005D34FF0000001F00041BDE8F081BDE85F
:101D8000F04170B5FFF736FE6DDBFFBEBDE8F041F8
:101D90004FF00000004970470000F87F10B591EA4D
:101DA000030F48BF83F000433FF582AB841A71EB09
:101DB000030C07D212198CF0004C43EB0C03001BF0
:101DC00061EB0C01DFF8A4E14FEA1154A4EB135CC2
:101DD0001EEA430F18BF9EEA445F00F0B08023EA7A
:101DE0006E03524221EA0451C3EB6E0338BF5B1EFF
:101DF000DCF1200E25D322FA0CFE10EB0E0043FA84
:101E00000CFE41EB0E01CCF1200E03FA0EFE10EB9E
:101E10000E0051F10001CCF1200E29D412FA0EF27D
:101E200001EB0451BDE8104058BF7047401C1CBF77
:101E3000B2F1004F704700280CBF491C20F0010090
:101E4000704712EB020E43EB030218BF4FF0010E76
:101E50004EEA4202ACF1200CDCF11E0E54D943FADA
:101E60000CFE10EB0E0051F1FF31CCF11E0ED5D55A
:101E70000EF1010E12FA0EFE404141EB010101EBA1
:101E8000445C5FEA5C5C10D910EBDE7001EB04513E
:101E900038BFBEF1004FBDE8104018BF70470028A2
:101EA0000CBF491C20F00100704730D24FEAD42CFF
:101EB00011F5001124F400641BD0B1FA81F20B3A41
:101EC000A41AA41ED2F12003914030FA03F319435F
:101ED000904001EBCC71002C01EB0451BDE81040A7
:101EE000A8BF704701F1C0414FF0000001F0004170
:101EF0007047B0FA80F310FA03F100D110BDE41A74
:101F0000173C4805C90AE4E701EB045110BD49102C
:101F100001EB0451BDE810404FEA300002E04FF001
:101F2000000170474A0008BF0042F8D0B2F5001F18
:101F300028BF704701F000414FF0000070479EEA53
:101F4000445F07D011EA5E0FBDE8104004BF0021D6
:101F500000207047BDE8104070B5FFF74BFD00BF93
:101F600040DFF63E83F00041104670470000E0FF7E
:101F700043004FEAD30C4FEA3C0C43401FBF4007DD
:101F80000CF1605113F0FE4F70471CF0006F03D14D
:101F900000200CF0004170470CF0004343EA507001
:101FA00010B540EACC0000F00EF800BF000000922F
:101FB0004FEA0001FFF714BE4FF000414FF0000060
:101FC000A1F5002170470EF1020E2EF0030E5EF80F
:101FD000044B244204D44FEA4102B2F17F4F11D89E
:101FE0004FEA4003B3F17F4F0CD80ED14FEAD07CBB
:101FF000B2F17F4F0CEB4C0C0CF1020C08BF4CEB18
:10200000D17C04E04FF0080C01E04FEAD17C0CEBEE
:102010004C0324FA03F404F00704B4F1040C06D2D0
:102020000EEB840CBDE810404CF0010C6047DFE87B
:102030000CF0070802024FF00040A0F5800010BD30
:102040000846420018BFD2F1807288BF00F00040FD
:1020500010BD4FF04070E1EE100A7047FF2141EAD9
:10206000D050C00570470000DD0C0008D10C0008FE
:1020700000000000000000000000E0400000000040
:102080000000000000000000000000000000000050
:102090000000000000000000000000000000000040
:1020A0000000000000000000000000000000000030
:1020B0000102030406070809000000006E83F9A26C
:1020C0002915444ED15727FCC0DD34F5999562DBC4
:1020D0004190433CAB6351FEF82000080000002013
:1020E00010000000C40100080821000810000020B2
:1020F00060060000E0010008010000001000000080
:08210000000000000024F400BF
:040000050800018965
:00000001FF
